S01800006275696C642F6D6963617A2F6D61696E2E73726563E5
S11300000C9463000C944D060C9457060C946106F2
S11300100C946B060C9475060C947F060C942A0DB4
S11300200C9489060C9482000C9482000C940810A1
S11300300C94A6110C9405070C941B070C947307DD
S11300400C943C060C94A20F0C9482000C94820035
S11300500C9482000C9493060C9482000C948200FD
S11300600C9410070C9482000C9482000C9482006F
S11300700C9482000C9482000C9482000C948200F4
S11300800C9482000C9482000C9482009612C91283
S1130090211341138F139A139C13A013A413A813B1
S11300A0BB13CC13E4138E12F1140B156A157015DF
S11300B0C115DD15E3151B16D616F9160F175F19B2
S11300C000081C18141011241FBECFEFD0E1DEBFAE
S11300D0CDBF11E0A0E0B1E0E0E6FBE300E00BBF40
S11300E002C007900D92A031B107D9F712E0A0E148
S11300F0B1E001C01D92AD37B107E1F70E94D519F7
S11301000C94AF1D0C9400008FB7F89499270895B0
S11301108FBF0895FC0182819927582F442781813C
S11301209927482B592BCA01892F9927869586959B
S1130130837090708230910559F08330910559F0A5
S1130140892B19F420E030E008C02CE93FEF05C00A
S113015022E030E002C028E030E0CA0184E0989F49
S1130160812D992711248230910559F0833091050E
S113017059F0892B19F480E090E008C08CE99FEFD6
S113018005C082E090E002C088E090E0280F391FAB
S11301902A5F3F4FCF01820F931F0895282F9FB7E7
S11301A0F894662349F0E82FFF27E453FE4F80813B
S11301B0882311F021E006C0E22FFF27E453FE4F0D
S11301C0608320E0892F99278FBF822F9927089574
S11301D0E82F8FB7F894282F332790E0FF27E453B4
S11301E0FE4F8081861709F491E02FBF892F99274C
S11301F00895882311F06E9A08956E9808958823BF
S113020011F06F9A08956F98089580E00E94F900A4
S1130210BA9ABB98B99AB89A6C9A80E00E94FF0087
S11302206B986A9881E00E94F900709A8DB18C7F76
S11302308DB908950F931F93CF93DF93182F8FB722
S1130240F894C82FDD270C2F61E080E00E94CE00D7
S1130250882321F0CFBF85E090E024C0809109017C
S11302608823A1F480912601823081F409C082E0C0
S113027080932601109209010E940501B89AC09842
S11302801093060180E00FBF99270CC080912601CE
S1130290882369F38FB7F89499271092CC018FBF04
S11302A081E0F1CFDF91CF911F910F910895282F15
S11302B09FB7F894E82FFF27E55BFE4F80818F3FBF
S11302C081F4E0917B02E21771F40BC020936C027D
S11302D004C0FF27E55BFE4F208320937B0220E0D0
S11302E007C025E005C080916C028F3F91F7EECFE7
S11302F0892F99278FBF822F992708951F93182F2D
S113030081E00E94F9001FB9779BFECF8FB1992736
S11303101F9108958F929F92AF92BF92CF92DF92D6
S1130320EF92FF920F931F93CF93DF938FB7F894BD
S11303309927C0907602D09077028090C301909064
S1130340C401C0919601D091970120912F01309161
S11303503001EAE0AE2EB12CAC0EBD1E2A153B05D1
S113036008F459018FBF7401EC0EFD1E86010C0FB9
S11303701D1F14C0C114D10419F0F801808101C0FB
S113038080E00E947E018114910411F0F7018083C2
S113039021960894E11CF11C0F5F1F4FC5010197C2
S11303A0C817D90738F381E00E94FF009FB7F8947B
S11303B0C114D10431F0CC0EDD1EF60180818FB959
S11303C001C01FB8D0939701C0939601892F992734
S11303D08FBF80E090E0DF91CF911F910F91FF904C
S11303E0EF90DF90CF90BF90AF909F908F90089543
S11303F02FB7F89433275093300140932F019093F3
S11304007702809376027093C4016093C3011092C3
S11304109701109296012FBF452B29F08FB10E94AE
S11304208A019927089586E10E94570180E090E0AF
S113043008958FB7F89499271092CE018FBF08952D
S11304407FB7F89462B72091320130913301409123
S113045034015091350106B601FE0FC081B792B741
S1130460280F311D411D511D2F5F3F4F4F4F5F4FCF
S1130470290F311D411D511D04C0260F311D411D81
S1130480511D872F99278FBFCA01B9010895EF9293
S11304900F931F93AE2D99E0899FF0011124E1562B
S11304A0FE4F4083518362837383048315832683C1
S11304B03783A17080858E7F8A2B8260808781E05C
S11304C00E9457011F910F91EF900895AF92BF9230
S11304D0CF92DF92EF92FF920F931F93F82E5A015F
S11304E06B010E942002AB01BC01F1E0EF2E9601EA
S11304F085018F2D0E9447021F910F91FF90EF906D
S1130500DF90CF90BF90AF90089580E8809348012A
S1130510109272011092700210926B0210926D018F
S11305200895CF93DF93FC0115A6DC019E96ED019F
S11305301B821A82198280E886A7DF91CF910895E1
S11305402F923F924F925F926F927F928F929F92DF
S1130550AF92BF92CF92DF92EF92FF920F931F93CD
S1130560CF93DF93CDB7DEB728970FB6F894DEBFED
S11305700FBECDBF2090790130907A0140907B016D
S113058050907C016624772488241EE4A12EB3E8CD
S1130590BB2ECC24DD24EE24FF2400E010E0222D29
S11305A0332D442D552D662D772D882D90E00E94F6
S11305B0911B29833A834B835C836D837E838F8372
S11305C09887822E932EA42EB52E2401350100E2A5
S11305D00E948F1CA22EB32EC42ED52EC301B201AD
S11305E096958795779567956A0D7B1D8C1D9D1D46
S11305F097FF05C09F776F5F7F4F8F4F9F4F60932B
S1130600790170937A0180937B0190937C01289601
S11306100FB6F894DEBF0FBECDBFDF91CF911F910F
S11306200F91FF90EF90DF90CF90BF90AF909F908D
S11306308F907F906F905F904F903F902F90089590
S11306408FB7F89460919A0170919B012CB53DB5D8
S113065006B602FE04C06F5F7F4F2CB53DB59927E7
S11306608FBF88279927CB017727662744275527EB
S1130670622B732B842B952B0895EF92FF920F938B
S11306801F930E9420037B018C01209183013091F0
S11306908401409185015091860180917E01909161
S11306A07F01A0918001B0918101820F931FA41F4B
S11306B0B51FE216F3060407150730F082179307F7
S11306C0A407B50758F005C082179307A407B50718
S11306D0E0F5E816F9060A071B07B8F59C01AD0119
S11306E02E193F09400B510B213060E8360760E0BA
S11306F0460760E0560768F180E090E8A0E0B0E0CB
S1130700E80EF91E0A1F1B1FE0928301F092840178
S1130710009385011093860180E090E8AFEFBFEF6E
S1130720E80EF91E0A1F1B1F20503048404050405D
S113073020937E0130937F01409380015093810187
S113074020E030E840E050E014C020E030E040E039
S113075050E08093830190938401A0938501B0932A
S1130760860110927E0110927F01109280011092F6
S11307708101A901B7012CB53DB5C9018E199F09A5
S113078003968417950720F0B9016D5F7F4F02C06F
S1130790640F751F6115710511F461E070E061501B
S11307A070407BBD6ABD80E186BF87B7806187BF2B
S11307B01F910F91FF90EF9008950F931F930FB720
S11307C0F8941127609383017093840180938501C9
S11307D09093860120937E0130937F0140938001A2
S11307E0509381010E943D030FBF1F910F91089503
S11307F0CF92DF92EF92FF920F931F93CF93DF93E9
S11308008C01F62E6A01E22E8FB7F894C82FDD27EB
S113081060E080E00E94E800882321F0CFBF80E000
S113082090E01EC0CFBF0F0D111D802F80680E9465
S11308307E01F82E16950795802F807C0E947E01FC
S11308400E2D0AC0EE2DFF27E01BF109EC0DFD1D56
S113085080810E947E0101500023A1F78F2D9927EA
S1130860DF91CF911F910F91FF90EF90DF90CF9088
S1130870089597B79F7D97BF90E296BF882319F09C
S11308808EB5806402C08EB58F7B8EBD87B78062C3
S113089087BF80E090E00895982F96959695969559
S11308A0ECE9F1E0E90FF11D877021E030E002C0CE
S11308B0220F331F8A95E2F78081822399270895B6
S11308C09FB7F894292F3327422F9091020198174C
S11308D041F480911101833021F42FBF81E090E035
S11308E008954FBF80E090E00895982F96959695CF
S11308F09695E9E4F1E0E90FF11D877021E030E01D
S113090002C0220F331F8A95E2F780818223992740
S1130910089580916F02882319F02FE170E002C0DE
S113092078E021E0622FEFB7F89480916B018E7F1D
S113093080936B0187B1982F9F71829586958695D8
S1130940837019F080E090E012C0822F88508631C5
S113095018F081E090E00BC040E050E03327892F8D
S113096099272817390711F441E050E0CA01982F5C
S11309709170990F80916B018178262F2F71422FEE
S1130980440F440F892B842B80936B01332727B9A1
S1130990783059F580916D0290916E0221E086388D
S11309A0920718F087E090E01FC0833C910518F08F
S11309B086E090E019C08136910518F085E090E05A
S11309C013C08033910518F084E090E00DC08831A5
S11309D0910518F083E090E007C00C9718F082E0CE
S11309E090E002C080E090E0782F7770887D872BBC
S11309F0886D992786B98E2F99278FBF0895982FD0
S1130A00969596959695EEE9F1E0E90FF11D8770BC
S1130A1021E030E002C0220F331F8A95E2F7808183
S1130A208223992708950F931F93CF93DF93182F51
S1130A308FB7F894282F3327022F80911101882330
S1130A4031F581E0809311011093DA012FBF8FB744
S1130A50F894C82FDD279C2F809102018230A9F4DD
S1130A6080911101813021F482E00E94570109C074
S1130A70823059F48091DA018093020183E08093FB
S1130A801101CFBF80E090E025C09FBFFBCF8091D4
S1130A90DA01811711F42FBFF5CF812F0E94FF04D3
S1130AA0882319F085E090E014C0E12FE695E695DF
S1130AB0E695FF27E256FE4F177081E090E002C0F2
S1130AC0880F991F1A95E2F72081282B208380E054
S1130AD090E00FBFDF91CF911F910F910895DF92A6
S1130AE0EF92FF920F931F938FB7F894282F332719
S1130AF0D22E91B782B746B7981711F041FF02C0C2
S1130B002FBF6AC0809195018823E1F10E942002E1
S1130B10E090C801F090C9010091CA011091CB0185
S1130B202091440130914501409146015091470183
S1130B306E197F09800B910B621773078407950761
S1130B4020F01092950171E01EC02E0D3F1D401F34
S1130B50511F8091320190913301A0913401B091E1
S1130B603501281B390B4A0B5B0B273E3105410528
S1130B70510540F4822F223010F070E005C070E07F
S1130B8082E002C070E086EE682F615000B601FC7E
S1130B90FDCF82B7681709F46F5F2091320130915D
S1130BA033014091340150913501DA01C9010196B4
S1130BB0A11DB11D860F911DA11DB11D82179307A3
S1130BC0A407B50710F4622F609561BFDFBE7723D9
S1130BD019F080E00E9457011F910F91FF90EF9050
S1130BE0DF900895AFB7F894BB27E1E0E093950157
S1130BF06093C8017093C9018093CA019093CB019B
S1130C00209344013093450140934601509347019A
S1130C10AFBF0E946F050895AF92BF92CF92DF924B
S1130C20EF92FF920F931F93CF93DF93CDB7DEB76D
S1130C3028970FB6F894DEBF0FBECDBF20E070E05A
S1130C40E0910001F091010132E14DE65CE46FE4D2
S1130C50809101019E2F28960FB6F894DEBF0FBE37
S1130C60CDBFDF91CF911F910F91FF90EF90DF9057
S1130C70CF90BF90AF9008951F920F920FB60F922E
S1130C8011248F9383B783BF00B600FCFDCF8F91EF
S1130C900F900FBE0F901F9018951F920F920FB6D2
S1130CA00F9211240F900FBE0F901F9018951F9252
S1130CB00F920FB60F9211240F900FBE0F901F903A
S1130CC018951F920F920FB60F9211240F900FBE1A
S1130CD00F901F9018951F920F920FB60F92112428
S1130CE00F900FBE0F901F9018951F920F920FB682
S1130CF00F9211240F900FBE0F901F9018951F9202
S1130D000F920FB60F9211240F900FBE0F901F90E9
S1130D1018951F920F920FB60F9211240F900FBEC9
S1130D200F901F9018951F920F920FB60F921124D7
S1130D302F933F934F935F936F937F938F939F93DF
S1130D40AF93BF93EF93FF9344B155B178948FB7AA
S1130D50F894992720916B01322F369531702170C8
S1130D608FBF2223D9F4339880919001813021F0F0
S1130D70823009F039C00AC0332351F05093C601C0
S1130D804093C5018CE00E9457012EC0332319F40F
S1130D900E94890429C01092900126C08FB7F8944C
S1130DA099278FBF2FB7F894332786B1582F5770E0
S1130DB0482F4072987D942B952B8074977B982BA9
S1130DC090619F77892F992786B9887D842B852BFD
S1130DD087738061992786B9887D842B852B877BCF
S1130DE08069992786B92FBFFF91EF91BF91AF9189
S1130DF09F918F917F916F915F914F913F912F912F
S1130E000F900FBE0F901F90189578941F920F9219
S1130E100FB60F9211240F900FBE0F901F901895CC
S1130E2078941F920F920FB60F9211240F900FBE59
S1130E300F901F90189578941F920F920FB60F92EF
S1130E4011242F933F938F939F932FB7F8943327B5
S1130E5080919A0190919B01019690939B018093BC
S1130E609A012FBF9F918F913F912F910F900FBEA9
S1130E700F901F901895CF93DF93CDB7DEB72C97C3
S1130E800FB6F894DEBF0FBECDBF8FB7F894282FEE
S1130E90AE014F5F5F4FDA01E2EDF1E088E00190CF
S1130EA00D928150E1F780917301909174018987CB
S1130EB0892F99278A8780918701909188018B8750
S1130EC0892F99278C872FBF2CE060E080E691E082
S1130ED00E94F8032C960FB6F894DEBF0FBECDBF68
S1130EE0DF91CF9108951F920F920FB60F921124A4
S1130EF02F933F934F935F936F937F938F939F931E
S1130F00AF93BF93EF93FF9383B783BF00B600FC07
S1130F10FDCF81B799270196AA27BB2720913201DB
S1130F20309133014091340150913501280F391F1C
S1130F304A1F5B1F209332013093330140933401E5
S1130F405093350178940E946F05FF91EF91BF9102
S1130F50AF919F918F917F916F915F914F913F914D
S1130F602F910F900FBE0F901F901895EF92FF9244
S1130F700F931F93CF93DF93982F8FB7F894E82E96
S1130F8080911101833009F045C0809102018917D5
S1130F9009F040C080919E01882309F045C03EC0FD
S1130FA0EF2DE695E695E695FF274F2D5527E2565A
S1130FB0FE4F9A012770307081E090E002C0880FE4
S1130FC0991F2A95E2F78095208128232083C093D6
S1130FD0100111C02196C230D10511F4C0E0D0E057
S1130FE0FC2E8C2F0E94FF048823D1F6C017D10752
S1130FF089F74FEF50E04093DA018FEF80930201BD
S113100081E08093110182E00E945701EFBE80E0ED
S113101090E010C0EFBE81E090E00CC082E08093CD
S1131020020110921101F2CF80911001082F1127B3
S1131030E801D0CFDF91CF911F910F91FF90EF90F6
S11310400895AF92BF92CF92DF92EF92FF920F93E7
S11310501F93CF93DF935B016C01C0E0D0E0EFE915
S1131060F1E0608561FFD5C02081318142815381E7
S1131070E480F58006811781D601C501821B930B9C
S1131080A40BB50B8E159F05A007B10708F4C1C0CA
S113109060FF03C06D7F608708C02E0D3F1D401F99
S11310A0511F2083318342835383C13041F0C130C7
S11310B020F0C33009F0B3C083C0AA98B0C080E068
S11310C00E946004882309F43AC09FB7F8942091E1
S11310D01301222319F421E030E00FC080910301B1
S11310E0813019F020E030E008C040E050E02150A9
S11310F0223010F441E050E09A01892F99278FBFE4
S11311002223E9F08FB7F894082F1127902F8091AC
S11311100301813099F480911301813021F483E03B
S11311200E94570109C0823049F48091750180936F
S1131130030183E0809313010FBF01C09FBF81E0CF
S11311400E946004882309F46AC09FB7F894209130
S11311501401222319F421E030E00FC0809115011D
S1131160882319F020E030E008C040E050E021502E
S1131170223010F441E050E09A01892F99278FBF63
S1131180222309F44CC08FB7F894082F1127902F0D
S113119080911501882391F480911401813021F408
S11311A084E00E94570133C0823041F4809167018A
S11311B08093150183E08093140129C09FBF2FC041
S11311C08FB7F894082F112780911301882389F48D
S11311D091E090931301109275010FBF8091160155
S11311E0882321F485E00E94570119C090931701C8
S11311F016C080917501882351F080E00E94750427
S1131200882329F4809149018160809349010FBFAB
S113121006C021963996C430D10509F022CF81E069
S11312200E945701DF91CF911F910F91FF90EF9092
S1131230DF90CF90BF90AF9008950F931F93182F16
S11312400FB7F89461E080E00E94CE00882371F526
S113125010930601809109018823A9F58091260144
S1131260823089F585E10CC00E9405018091260138
S1131270882349F481E08093260110926E0187E16E
S11312800E9457012AC0809182018F3F31F5E0917D
S11312900801EE2311F11CC01092070104C0FF27BE
S11312A0EE57FE4F10821092080117C081E090E0C3
S11312B002C0880F991F1A95E2F720912501282B67
S11312C0209325010AC0809126018823E1F6CCCF22
S11312D0809107018F3F19F7DFCF802F99278FBFA8
S11312E080E090E01F910F9108951F9383E00E9486
S11312F01A019927182F882319F083E00E941D09E9
S1131300812F99271F9108951F9380912501882388
S113131009F04BC0109106011F3F09F046C060E080
S11313200E94E800882309F440C081E08093DC0136
S113133080914A018823E1F11092DC0185E090E07C
S113134045C0923069F5C09A8091070120E030E0F1
S11313508F3F11F421E030E0232BE9F410930901CD
S11313608F3F19F42FEF30E00DC0282F3327F901F8
S1131370EE57FE4F8081809307018F3F11F4109345
S11313800801108320936E0181E08093260187E198
S11313900E94570105C0109309011092260111C043
S11313A080912601882369F00FC081E090E00EC08F
S11313B08091090190912601882319F2923021F03D
S11313C0EFCF80E00E94F90080E090E01F91089543
S11313D01F93CF93DF939FB7F894C92FDD271C2F5A
S11313E090910601981721F0CFBF81E090E03AC0B8
S11313F08FEF80930601309125013323F1F48FB7E9
S1131400F89499271092CC018FBF0E948409CFBF12
S113141011C02093060181E090E002C0880F991F5B
S11314204A95E2F7809538233093250185E10E949F
S113143057011FBF80E090E015C080E065E0E32F16
S1131440FF270E94121D292F492F5527CF01042E53
S113145002C0959587950A94E2F780FDDACF822F32
S11314608F5FEFCFDF91CF911F910895FF920F937C
S11314701F93CF93DF93F82E8B018FB7F894C82F67
S1131480DD2760E080E00E94E800882321F0CFBFE0
S113149080E090E00CC0CFBF8F2D0E947E01812F91
S11314A099270E947E01802F0E947E019927DF9157
S11314B0CF911F910F91FF9008951F931FB7F89438
S11314C080916C01882319F460E070E009C060E049
S11314D080917502882309F461E081E06827772709
S11314E080917601882319F480E090E00AC090E0AE
S11314F08091D101882309F491E081E09827892F14
S11315009927762F6627770F770F770FF4E0880FE8
S1131510991FFA95E1F7826E9262682B792B81E12B
S11315200E94360A812F99278FBF1F9108958FB784
S1131530F89499276091DB018FBF85E0689FB00123
S11315401124625D7E4F706488E10E94360A08951A
S1131550EF92FF921F93CF93DF93E0907701F09087
S11315607801F70182A59927182F882309F41FE130
S1131570C09880916A01811749F0612F77276F71B4
S11315807070606E706885E10E94360A10936A017B
S1131590F70110818FB7F894C82FDD2760E080E051
S11315A00E94E800882311F0CFBF12C0CFBF8EE3A2
S11315B090E090938C0180938B018EE30E947E01D6
S11315C01150412F552760E070E0C7010E94F801D7
S11315D0DF91CF911F91FF90EF9008950F931F9388
S11315E0CF93DF93EC010FB7F89411270E948A0080
S11315F0FC018FE380830FBF10927302109272027A
S113160061E082E00E94CE00882319F085E090E03A
S113161072C08091DD018F5F8093DD0181508B83E7
S11316208FB7F894082F112762E081E00E94E80048
S1131630882329F40FBF0E94190281E05BC08FB791
S1131640F894992724E02093CD018FBFD09394017F
S1131650C09393010FBFFE0131968181298199279F
S1131660982F88273327822B932B80729C7C898325
S1131670892F992781832981982F882733272164EB
S1131680822B932B8983892F992781831CA618A6E3
S113169019A619AA18AA1FA680E88EA761E060936C
S11316A0D00140919301509194018FB7F894282F61
S11316B0332780912701909128018830910511F0FA
S11316C0019711F02FBF15C082E090E0909328019C
S11316D08093270160937C025093780140937701B3
S11316E0109231012FBF0E947509882311F40E94C2
S11316F0A80A80E09927DF91CF911F910F91089557
S1131700CF93DF93DA01422F2D3118F082E090E07D
S11317105EC0ED018B876E83872F99278F832FB748
S1131720F894332780917301909174012FBFFD01C8
S11317308483892F992785832FB7F8943327809141
S11317400A0190910B012FBF8887892F99278987D8
S11317503196818129819927982F882733272064FE
S11317603868822B932B8983892F99278183435F40
S11317704C934D5080910D01882359F010920D0126
S1131780642FCD010E94EE0A9927282F8823A9F4FB
S113179017C0842F99279093920180939101B0935D
S11317A02C01A0932B0189E10E94570180910D0126
S11317B0882349F489E090E00AC08FEF80930D01FB
S11317C0822F992704C010927D0180E090E0DF9180
S11317D0CF91089510920501E0919801F09199013B
S11317E0309721F08091710280FF08C081E08093DE
S11317F0050108958EE00E945701089520812D501F
S1131800332767817727762F662786819927682B68
S1131810792BAF0183850E94800B882359F70895A3
S1131820CF93DF9380910501882391F4C0919801AF
S1131830D0919901C617D70759F4109299011092C3
S113184098010E94EA0BC35ED14011F410921C016E
S1131850DF91CF910895CF93DF93FB01DB011696BF
S11318608683892F9927ED01898386E08387809178
S1131870980190919901892B19F085E090E02BC093
S1131880F0939901E0939801435F40834D50809118
S11318900501882319F480E090E01DC08385ED01E3
S11318A069817727762F662726813327622B732B4E
S11318B010920501242FAF010E94800B9927282F35
S11318C0882339F081E080930501109299011092E8
S11318D09801822F9927DF91CF9108951F93CF9379
S11318E0DF93182F8FB7F894C82FDD2760E080E0CE
S11318F00E94E800882321F0CFBF80E090E005C07B
S1131900CFBF812F0E947E019927DF91CF911F9134
S11319100895EF92FF920F931F93CF93DF93182FA5
S11319207B01042F8FB7F894C82FDD2760E080E097
S11319300E94E800882321F0CFBF80E090E014C02B
S1131940CFBF1064812F992790938C0180938B01D2
S11319500E947E01182F402F5527B70180E090E0A8
S11319600E94F801812F9927DF91CF911F910F9148
S1131970FF90EF900895C09860912D0170912E0111
S113198041E08FE30E94890C089582E090E09093F7
S113199066018093650181E08093720120E030E06C
S11319A080910601843011F421E030E0232B29F4E6
S11319B084E00E941A01882319F40E94BB0C089544
S11319C084E00E941D0908951F93CF93DF938FB77E
S11319D0F894C82FDD271C2F809165019091660132
S11319E0892B29F484E00E94E809CFBF1EC010921D
S11319F0720180916D01882311F0B79904C00E998A
S1131A0008C0882319F0815080936D010E94C50C91
S1131A100BC081E090E09093660180936501109281
S1131A206D0184E00E94E8091FBFDF91CF911F91EF
S1131A3008950E948502C09AC09888E00E946E0CA6
S1131A4088E00E946E0CC09A84E00E94E8090E941B
S1131A50E40C08951F920F920FB60F9211242F9346
S1131A603F934F935F936F937F938F939F93AF9322
S1131A70BF93EF93FF938091650190916601019765
S1131A8049F482E090E090936601809365010E949E
S1131A90C50C05C080916D018F5F80936D01FF912E
S1131AA0EF91BF91AF919F918F917F916F915F91D2
S1131AB04F913F912F910F900FBE0F901F9018954B
S1131AC01F93182F81E090E09093280180932701C1
S1131AD010924A010E9484098FB7F89499271093B1
S1131AE021018FBF81E10E9457011F910895CF9278
S1131AF0DF92EF92FF920F931F93CFB6F894DD24F9
S1131B000E94A002DC01CB0166E470E00E941E1D6D
S1131B107BE0E72EF12CE80EF91EF0927902E092B8
S1131B2078020E94200300271127A80197010E9430
S1131B30DD03CFBE1F910F91FF90EF90DF90CF9008
S1131B4008951F93CF93DF938FB7F894C82FDD27A1
S1131B501C2F80912701909128010897C9F489E0EE
S1131B600E946E0C83E00E94E809C09A81E090E034
S1131B7090932801809327018FB7F894992723E045
S1131B80209321018FBF81E10E945701CFBF30C054
S1131B90C09880917C02882311F085E001C084E024
S1131BA00E946E0C83FD09C080E00E946E0C83FFCE
S1131BB004C085E090E020E003C083E090E021E0F1
S1131BC09093280180932701C09A1FBF222341F0DC
S1131BD01092310183E00E94E8090E94770D08C049
S1131BE00E94200320E431E040E050E00E94DD0345
S1131BF0DF91CF911F910895EF92FF920F931F935E
S1131C00CF93DF938B0180918B0190918C0186FFA0
S1131C1040C18F7B8F3309F08EC1C0912D01D091CB
S1131C202E0158815093680180916501909166015D
S1131C308530910509F443C08630910509F48AC0C2
S1131C40029709F01FC185E090E0909366018093AC
S1131C50650140914801852F99270196242F332748
S1131C60281739074CF1B79906C00E9904C0451BD3
S1131C70415040934801409168014A32E8F44423BA
S1131C80A1F0BE016F5F7F4F483018F047E050E08D
S1131C9007C086E090E09093660180936501552724
S1131CA080E090E00E94F80146C110927201C09A4F
S1131CB084E00E94E809E3C00E94190D3CC186E05B
S1131CC090E090936601809365018091760188236A
S1131CD009F439C08091D1018823A9F5898185FF50
S1131CE032C08F814E812FB7F894332760918701DA
S1131CF0709188012FBF9927982F88275527842B07
S1131D00952B8617970759F08F812E819927982F45
S1131D1088273327822B932B8F5F9F4FA1F48981D0
S1131D208770813081F4C09AC0988AE00E946E0C5A
S1131D30C09AC0984091680147502896BE018FE32D
S1131D400E94890CF8C04091680147505527289695
S1131D50BE01A6CFC09A80916D01882339F484E036
S1131D600E94E80980916D01882311F0B7990AC097
S1131D700E9B08C090916B02992321F08091680119
S1131D808B3038F480912D0190912E010E949102A4
S1131D903DC0913001F5E0917002FF27EE0FFF1F67
S1131DA0EE0FFF1FE95EFD4F208131814281538197
S1131DB0E0912D01F0912E0121ABBB27A52F942F8B
S1131DC0832F80ABCA01AA27BB2787A7252F3327D8
S1131DD04427552726A7809170029927019668E029
S1131DE070E00E94321D8093700280916B028150DA
S1131DF080936B02882351F080912D0190912E01E4
S1131E000E9491021092700210926B0280916801FC
S1131E10FE01E80FF11D808187FF31C0012B79F1AC
S1131E2069816770E0912D01F0912E01623019F5FE
S1131E30A0917701B0917801109709F18091270161
S1131E40909128010797D9F4ED019B81838198171C
S1131E50B1F487B78F7E87BF908181E08CA7E90FAB
S1131E60F11D8291319688A780818F7789A780E0C0
S1131E700E94600D04C0613011F488E12AC00E9400
S1131E80E40C59C010927201C09A84E00E94E809DF
S1131E9052C08E3309F04FC0C09A809127019091AF
S1131EA028010897C9F4C09889E00E946E0CC09A72
S1131EB083E00E94E80981E090E0909328018093F8
S1131EC027018FB7F894992723E0209321018FBF2E
S1131ED081E10E9457012FC080917C02882349F43C
S1131EE084E090E090932801809327010E94A10D43
S1131EF022C083E00E94E80983E090E090932801E7
S1131F00809327010E94A002DC01CB0166E371E00B
S1131F100E941E1DEBE0EE2EF12CE80EF91EF0924D
S1131F204301E09242010E94200300271127A801E7
S1131F3097010E94DD03DF91CF911F910F91FF90D4
S1131F40EF9008951F920F920FB60F9211242F93C2
S1131F503F934F935F936F937F938F939F93AF932D
S1131F60BF93EF93FF932FB1E091C301F091C401AC
S1131F70309739F08091960190919701E80FF91FFD
S1131F8020838091960190919701019690939701F7
S1131F908093960180E00E94FF0040912F015091B0
S1131FA0300180919601909197018417950718F458
S1131FB00E948A011CC06091C3017091C401809188
S1131FC07602909177021092C4011092C30110928C
S1131FD07702109276021092300110922F01109223
S1131FE09701109296012FB120E00E94FC0DFF9101
S1131FF0EF91BF91AF919F918F917F916F915F917D
S11320004F913F912F910F900FBE0F901F901895F5
S113201078941F920F920FB60F9211242F923F9231
S11320204F925F926F927F928F929F92AF92BF92E4
S1132030CF92DF92EF92FF920F931F932F933F93D0
S11320404F935F936F937F938F939F93AF93BF93BC
S1132050CF93DF93EF93FF93C6B5D7B58FB7F894BB
S1132060282E0E9420039B012C1B3D0B442755273F
S11320702B013C01421A530A640A750A8091270114
S1132080909128018530910521F0069709F0E0C070
S1132090BFC086E090E0909328018093270131E04F
S11320A0332E309270011092290180E00E9439048D
S11320B0E0917701F091780141AABB27A72D962DD5
S11320C0852D80ABC301AA27BB2787A7872D992716
S11320D0AA27BB2786A7E0917701F091780185A50F
S11320E0882309F484C06081655077274F01860EE8
S11320F0971EF4012081E1808281A3809927AA2779
S1132100BB27BA2FA92F982F882733274427552771
S1132110522F442733272227FF2400271127870122
S1132120FF24EE242E293F29402B512BBB24CC2401
S1132130DD242A293B294C295D29822B932BA42BAE
S1132140B52B84199509A609B7098383292F3A2F3A
S11321504B2F552722839D014427552721838B2FFD
S11321609927AA27BB278083C09824E0A40180E094
S113217090E00E94F803C09AF4012081E1808281FA
S1132180A3809927AA27BB27BA2FA92F982F88277E
S1132190332744275527522F442733272227FF2448
S11321A0002711278701FF24EE242E293F29402BE5
S11321B0512BBB24CC24DD242A293B294C295D291D
S11321C0822B932BA42BB52B840D951DA61DB71D17
S11321D08383292F3A2F4B2F552722839D01442790
S11321E0552721838B2F9927AA27BB278083E0912A
S11321F07701F0917801818185FF02C030924A0114
S113220083E00E94E80987B78F7E87BF84997AC0EC
S11322101092700181E00E943904E0917701F091FD
S11322207801818185FF0FC087E090E090932801B9
S1132230809327010E94200320E031E040E050E039
S11322400E94DD0303C080E00E94600D849B5AC09D
S113225080912901882391F580917001882371F57B
S113226011E0109370010E94390480B320916B0235
S1132270283098F4E0917002E20FFF27E770F070C5
S1132280EE0FFF1FEE0FFF1FE95EFD4F40825182EC
S1132290628273822F5F20936B0210932901D09383
S11322A08E01C0938D0184992DC0992764E0969581
S11322B087956A95E1F7182F117001C010E080919D
S11322C070018130F9F4109270010E943904109267
S11322D029011123B9F480918D0190918E01C81BBD
S11322E0D90B2A9778F480916B02882319F08150D6
S11322F080936B028091770190917801009711F09F
S11323000E9491022FBEFF91EF91DF91CF91BF9177
S1132310AF919F918F917F916F915F914F913F9179
S11323202F911F910F91FF90EF90DF90CF90BF906E
S1132330AF909F908F907F906F905F904F903F9061
S11323402F900F900FBE0F901F90189578941F92A6
S11323500F920FB60F9211241F932F933F934F9315
S11323605F936F937F938F939F93AF93BF93EF93F9
S1132370FF9387B78F7E87BF78941FB7F8948091B7
S11323807E0190917F01A0918001B091810100971D
S1132390A105B10509F051C0809127019091280150
S11323A08530910561F18630910530F483309105D3
S11323B049F0049781F51AC087309105F1F0089728
S11323C051F514C0869B0FC084E090E090932801DF
S11323D0809327010E94200327E030E040E050E092
S11323E00E94DD0318C00E94770D15C00E94750974
S11323F0882389F40E94A10D0EC080E00AC089E000
S11324000E946E0C81E00E94390483E00E94E80976
S113241087E00E94600D8091220190912301019731
S113242071F482E090E09093230180932201DE987E
S1132430DE9A80E00E941D0902C00E943D03812FA4
S113244099278FBFFF91EF91BF91AF919F918F918A
S11324507F916F915F914F913F912F911F910F90B9
S11324600FBE0F901F90189561E081E00E94CE008E
S11324708823E9F48FB7F894282F33278091220119
S113248090912301892B11F02FBF20C081E090E0AF
S113249090932301809322012FBFDD9A0E94200391
S11324A024E130E040E050E00E94DD030FC062E030
S11324B081E00E94E800882319F089E090E0089503
S11324C061E081E00E94E800882319F080E090E058
S11324D0089585E090E008959F92AF92BF92CF92C5
S11324E0DF92EF92FF920F931F93CF93DF93CDB7B9
S11324F0DEB7A8970FB6F894DEBF0FBECDBFE82FA6
S1132500FF27EA31F10510F00C94A619EA5BFF4F9E
S1132510EE0FFF1F0590F491E02D09948091710254
S1132520882309F413C740E051E03AC2809169015D
S1132530882361F52091DF013091E0014091E101B0
S11325405091E201EFB7F894FF276091C8017091B0
S1132550C9018091CA019091CB01E0904401F090AF
S1132560450100914601109147016E0D7F1D801FAA
S1132570911FEFBF2093DF013093E0014093E1010D
S11325805093E201109269010E94F2050E94200218
S113259043C00E9420025B016C018FB7F894992715
S11325A0109295018FBFFFEFEF2EFFEFFF2EFFEF8D
S11325B00F2FFFE71F2F60E0EFE9F1E0808581FF37
S11325C01CC080819181A281B381A6019501281B41
S11325D0390B4A0B5B0BDA01C90124813581468131
S11325E05781281B390B4A0B5B0B2E153F054007FF
S11325F051071CF479018A0161E0399631E0E33C2A
S1132600F307E1F6662309F4A1C61E141F0410069D
S113261011062CF0C601B5010E94210897C6E0926C
S1132620DF01F092E0010093E1011093E20181E007
S113263080936901A8019701C601B5010E94F205C2
S113264085C68FB7F89499272091DA012093020167
S113265023E0209311018FBF80910201882321F090
S1132660813009F073C603C0159A1D9A02C0169AE8
S11326701E9A4AE050E060E070E081E00E94660249
S113268065C62FB7F89433278091750180930301B1
S113269043E0409313012FBF809103018093DE0137
S11326A08FB7F894082F112780911B01882341F5D7
S11326B081E080931B0110929D010FBF8FB7F894A6
S11326C09927379A8FBF8FB7F894082F1127902F27
S11326D080910401813091F480911B01813021F4B7
S11326E08BE00E94570108C0823041F480919D0123
S11326F08093040140931B010FBF28C69FBF26C6C9
S113270080919D018823C1F380E00E944C048823BA
S113271099F780919C01816080939C01EDCF8FB7E4
S1132720F8949927209167012093150123E02093C1
S113273014011FC080E005C01D98159889E06CC382
S113274081E00E94130502C61E9816988AE064C3AD
S113275080E00E94B60780911701813019F480E06F
S11327600E9413058FB7F8949927109217011092BD
S113277016018FBFEBC581E00E94B6078091190155
S1132780813011F40E9413058FB7F89499271092A1
S1132790190110921801EDCF2FB7F89433278091C7
S11327A09D018093040183E080931B012FBF8091DE
S11327B00401882309F0CAC581E080939001109236
S11327C06F020E948904C2C510929001A090C501B5
S11327D0B090C60180916F02882309F0B7C58FB706
S11327E0F894C82E80911B01833009F041C0809178
S11327F004018823E9F580919C01882309F08EC5A2
S113280086C5ED2DE695E695E695FF274D2D5527D2
S1132810E456FE4F9A012770307081E090E002C0C8
S1132820880F991F2A95E2F7809520812823208319
S113283000931A0112C00F5F1F4F0130110511F4EC
S113284000E010E0D02E802F0E944C048823C9F6AB
S11328500E151F0581F74FEF50E040939D018FEF58
S11328608093040181E080931B018BE00E94570157
S1132870CFBE80E00E946004882309F48AC090904F
S1132880DE018FB7F894C82E80911301833009F0CC
S113289041C0809103018915E9F58091490188239C
S11328A009F04BC541C5ED2DE695E695E695FF2764
S11328B04D2D5527E75BFE4F9A012770307081E05C
S11328C090E002C0880F991F2A95E2F78095208135
S11328D0282320830093120112C00F5F1F4F013081
S11328E0110511F400E010E0D02E802F0E94750431
S11328F08823C9F60E151F0581F74FEF50E040936A
S113290075018FEF8093030181E08093130183E0CD
S11329100E945701CFBE9920E1F5409100015091EA
S1132920010144305105A9F588E5A81682E0B806EE
S113293080F520911D0130911E012F5F3F4F309390
S11329401E0120931D0180911C01882311F5A09282
S1132950F6018B2D99278093F50183E090E0809315
S1132960F2011092F1014093F0011092EF012093D3
S1132970F401832F99278093F30148E063EE71E01B
S11329808FEF9FEF0E942B0C882319F481E0809332
S11329901C0181E00E946004D9C42FBFD7C4550F25
S11329A090917102852F8923C1F0E42FFF27EE0F48
S11329B0FF1FE856FE4F2081318111821082852F3E
S11329C08095982390937102442339F4235E314017
S11329D009F0B9C410921C01B6C44F5F4830F8F234
S11329E0B5C410910501E12FFF27EE0FFF1FE85634
S11329F0FE4FE080F180118210820E94EA0B1123C5
S1132A0009F0A4C4E3EEEE16E1E0FE0609F09EC46C
S1132A1010921C019BC40FB7F894112781E00E9407
S1132A20390441E0E42EF12CF0922801E0922701D0
S1132A301092290110924A0110926A010FBF0FB738
S1132A40F89411270E948502F0926601E0926501D4
S1132A501092720189B78F7B89BF80E488BF8AB7DF
S1132A6080628ABF8AB78F7E8ABF89B7806489BF34
S1132A700FBF8FB7F894082F1127809122019091EE
S1132A802301049719F483E00E946E0C0FBF0FB763
S1132A90F8941127C09A80E00E94E8090FBF8FB70D
S1132AA0F894992722E02093CD018FBF80910001F3
S1132AB090910101049709F049C40E942002AB01DE
S1132AC0BC01EE240AEF10E020E030E083E00E9435
S1132AD047023CC48FB7F89499271092CD0149CE90
S1132AE08FB7F8949927F09021018FBF63E081E0BC
S1132AF00E94E800882359F10FB7F8941127109227
S1132B0028011092270187B78F7E87BF87B78F7DF3
S1132B1087BF83E00E94E809C09A0FBF0FB7F894FB
S1132B20112710926601109265010E948502C09AD5
S1132B3089B78F7B89BF0FBF1092230110922201A6
S1132B40DE98DD98DE9A80E10E94570107C08FB7B6
S1132B50F894992722E02093CD018FBF009193012F
S1132B60109194010E941902809172029091730253
S1132B70892B09F0EBC38FEF80930D014F2DB80122
S1132B80BDC38FB7F894282F3327122F80917A0270
S1132B90882309F002CF81E080937A028091220198
S1132BA090912301049721F481E00E941D0903C040
S1132BB083E10E9457011FBFC9C38FB7F8949927B7
S1132BC010927A02D6CD8FB7F894282F33278091AC
S1132BD02401882309F0E1CE2FBF80B3992736E082
S1132BE0969587953A95E1F7182F11709091890180
S1132BF080918A018917D9F01917C9F484E090E00B
S1132C0090932301809322018FB7F894992721E0B0
S1132C10209324018FBF60E070E08DE10E94360AAA
S1132C200E943B07C09AC0988FE00E9457011093FE
S1132C308A0184E1F1C08FB7F894992710910601B5
S1132C408FBF123009F465C0133030F4112359F0EA
S1132C50113009F07BC348C0133009F474C0143038
S1132C6009F074C3A0C0C0988FB7F894082F112737
S1132C708091220190912301029709F03DCD83E0D8
S1132C8090E0909323018093220168E170E08DE14C
S1132C900E94360A81E0809389011092240180B356
S1132CA0992726E0969587952A95E1F7817090708B
S1132CB080938A0184E10E94570181E00E946E0C96
S1132CC06FE772E08CE10E94360A0E94970A0E9424
S1132CD05D0A66E57AE287E10E94360A6FEF70E8E2
S1132CE085E10E94360A08CDC09886E00E946E0CE9
S1132CF00E94970A0E945D0A0E943B07C09AC098EE
S1132D0083E00E946E0CC09A81E00E94E80983E18E
S1132D1083C0C0988FB7F894082F112760E080E033
S1132D200E94E800882311F00FBF0AC00FBF83E59B
S1132D300E947E0180E00E947E0180E00E947E016C
S1132D40C09A82E02DC08FB7F8949927209127016B
S1132D508FBF243039F0283041F0223001F50E9431
S1132D60A80AF4C20E94A10DF1C2C09889E00E9491
S1132D706E0CC09A83E00E94E8098FB7F8949927F3
S1132D8021E030E030932801209327018FBF8FB7D3
S1132D90F8949927109321018FBF81E13DC083E00E
S1132DA00E94E809D3C20E94BB0CD0C20FB7F894AA
S1132DB0112740912F01509130016091C30170910E
S1132DC0C40180917602909177021092C40110920E
S1132DD0C301109277021092760210923001109281
S1132DE02F01109297011092960120E00E94FC0D91
S1132DF083CC2FB7F894332780916E018093090117
S1132E0082E0809326012FBF80910901882309F075
S1132E109DC2B89AC09885E10E94570197C2A091BB
S1132E202D01B0912E01FC909D012F0D311DF90152
S1132E308081881F8827881FFD0183A7F90180816D
S1132E408F77FD0181A721503040F9018081FD0178
S1132E5080A7A0912D01B0912E01FD0132818FB781
S1132E60F894992720916C018FBF222309F490C014
S1132E70832F99279695879596958795837090705B
S1132E808230910541F5878146812FB7F894332725
S1132E9060918701709188012FBF9927982F882707
S1132EA05527842B952B8617970719F481E090E01A
S1132EB06CC0FD018781268140E050E09927982F5E
S1132EC088273327822B932B8F5F9F4F11F441E088
S1132ED050E0CA015AC0039709F0E8C19E012F5F70
S1132EE03F4F42ED51E088E0FA010190AF01F90152
S1132EF001929F018150C1F79E012F5D3F4FAE01AA
S1132F004F5F5F4F88E0FA010190AF01F901019230
S1132F109F018150C1F79E01275F3F4FAE014F5D76
S1132F205F4F88E0FA010190AF01F90101929F011E
S1132F308150C1F79E012F5E3F4FAE01475F5F4F47
S1132F4088E0FA010190AF01F90101929F018150DB
S1132F50C1F79E01275E3F4FAE014F5E5F4F88E091
S1132F60FA010190AF01F90101929F018150C1F76B
S1132F7048E050E0BE01675E7F4FCD0106960E9497
S1132F809B1D892B09F092C103C0882309F48EC1CB
S1132F90FCE0FF1508F08AC1C0902D01D0902E01ED
S1132FA0F6012281822F992736E0969587953A95E6
S1132FB0E1F7039719F468E070E002C062E070E0A2
S1132FC0822F99279695879596958795837090700B
S1132FD0039719F488E090E002C082E090E026E0D4
S1132FE030E0C20ED31E40E050E020E030E0F601B5
S1132FF0E80FF91F8AEF9FEFC80ED91E05C0819113
S1133000480F511D2F5F3F4F26173707C4F3F601B2
S113301063818FEF809374028FB7F894782F20E048
S113302030E0E6E3F1E0808191818417950731F483
S11330308281861709F4F7C0209374022F5F3F4FF3
S113304033962430310579F77FBF909174023FB7EE
S1133050F8949F3F21F080912A01891799F42091D7
S11330602A01822F9927FC01EE0FFF1FE80FF91F99
S1133070EA5CFE4F5183408362832F5F2370209369
S11330802A010CC0892F9927FC01EE0FFF1FE80FBE
S1133090F91FEA5CFE4F518340836283832F992793
S11330A08FBF0FB7F8941127C6010E948A00FC0154
S11330B090810FBFF60183A5882309F4F3C09F33E1
S11330C009F0F0C0878146812FB7F89433276091C7
S11330D00A0170910B012FBF9927982F8827552734
S11330E0842B952B8617970761F087812681992772
S11330F0982F88273327822B932B8F5F9F4F09F0BC
S1133100D1C0F6018385863009F0CCC0F5E1FF1605
S113311009F0C8C080911C01882309F0C3C0B6011E
S1133120645F7F4FF601868527859927582F4427AA
S11331303327422B532B80910001909101014817B2
S1133140590709F0AFC00FEE11E04130510509F005
S113315047C08091F5019927982F88272091F6017F
S11331603327822B932B8855924008F09BC0809183
S1133170A70181FF2BC0E090A301F090A40100916E
S1133180A5011091A6010E9420029B01AC0180912F
S11331909F019091A001A091A101B091A201281BCF
S11331A0390B4A0B5B0B2E153F054007510770F492
S11331B0E21AF30A040B150B29EEE21623E0F206D9
S11331C020E0020720E0120708F06CC048EE53E04C
S11331D060E070E080E00E946602A29AAA9A62C04F
S11331E0A601405F5F4FF6018089D601519621897F
S11331F09927982F88273327822B932B909320018C
S113320080931F012FB7F894992780FF02C0DA98A2
S113321001C0DA9A81FF02C0D99801C0D99A82FF0D
S113322004C0D89803C07FBF3DC0D89A822F992785
S11332308FBFFA0180812C919927982F88273327F3
S1133240822B932B8093F401892F9927F80184838F
S1133250FB01868127819927982F88273327822B82
S1133260932B8093F601892F9927F8018683809107
S11332700001909101018183292F33272093EF01CD
S113328001978093F201892F9927828348E063EEA6
S113329071E08FEF9FEF0E942B0C882319F481E0DB
S11332A080931C01D0922E01C0922D018FB7F89407
S11332B09927109272018FBF0E94E40C47C090912D
S11332C07D0180910D01981709F440C090930D0180
S11332D09923C9F400912B0110912C016091910163
S11332E0C8010E94EE0A482F5527442379F18FEF35
S11332F080930D0160912B0170912C01F80183855D
S11333000E94100C23C08FEF80930D011FC081E039
S11333108093040110921B013798AACA80911A0164
S1133320E82EFF24870187CA81E08093030110926D
S113333013018093160186E0EBCA80911201E82EF6
S1133340FF248701CACA550F41E02ACBA8960FB6BD
S1133350F894DEBF0FBECDBFDF91CF911F910F91C7
S1133360FF90EF90DF90CF90BF90AF909F90089523
S113337080916C028F3FB1F0282F3327F901E55B70
S1133380FE4F808180936C028F3F11F480937B0207
S11333908FEF80832F3F31F0822F0E946C1281E0E7
S11333A090E0089580E090E008951F93CF93DF9319
S11333B0CDB7DEB7E0970FB6F894DEBF0FBECDBF32
S11333C01FB7F8944AE150E06FEF70E08BE491E0AE
S11333D00E94A81D8FEF80936C0280937B0281E092
S11333E08EBD88E080BF83E083BF8CB59DB54AE77E
S11333F02CB53DB52817390708F44150442311F082
S1133400C901F6CF92B782B78917E9F32CB53DB558
S113341092B782B78917E9F38CB59DB5821B930BDC
S11334204096A5E096958795AA95E1F790936E024C
S113343080936D0213BE83B78EBD8EB580BF12BE5E
S11334401DBC1CBC8FEF86BF86B780937C0080B701
S1133450992787709070892BD1F7D29AD19AD09AF4
S1133460DA9AD99AD89A15BA8FEF84BBD498DC9893
S11334701DBC1CBC87B7846087BF8EB5887F846001
S11334808EBD16B80E94B8198823E1F78FEF809398
S11334906F01E6E3F1E08FEF9FEF91838083128267
S11334A0339621E0E234F207C1F70E94A002609350
S11334B0DD0180910001909101010196AA27BB27AB
S11334C08093790190937A01A0937B01B0937C015E
S11334D087E392E090932E0180932D018E98B89A01
S11334E08C988FEF809382011092CC011092CD01C1
S11334F01092CE011092CF01B89AD69AD59A8FB76E
S1133500F894992720910A0130910B018FBF3093D1
S11335108801209387010E940C0629A73AA74BA78C
S11335205CA76DA77EA78FA798ABDE019196FE01DD
S1133530B99688E001900D928150E1F7DE01519631
S1133540FE01B19688E001900D928150E1F7DE0111
S11335505996FE01719688E001900D928150E1F731
S1133560A2EDB1E0FE01799688E001900D928150C0
S1133570E1F780910C019927909374018093730172
S11335808FE18093C7018AE18093DB010E940C06DE
S113359029A73AA74BA75CA76DA77EA78FA798ABCF
S11335A0DE019196FE01B99688E001900D9281505A
S11335B0E1F7DE011196FE01B19688E001900D92CB
S11335C08150E1F7DE011996FE01319688E0019001
S11335D00D928150E1F7A2EDB1E0FE01399688E049
S11335E001900D928150E1F7A2EDB1E0FD01379613
S11335F09C9180818D939083319781E0E53DF8071C
S1133600B9F781E080936C01109275028093760182
S11336101092D10110929C011092490110929E01C6
S113362080B7886080BF8BE083BF86EE81BF87B799
S1133630826087BF0E946F050E94B8198823E1F752
S1133640812F99278FBF78940E9434128FB7F894F2
S1133650482F55274BC087B7992783709070892BC3
S113366019F4E5E0F0E013C080B7992787709070F3
S1133670892BD1F781B792B7891B8C3030F082B790
S1133680853F18F4E3E0F0E002C0E2E0F0E087B741
S1133690887BC1F480917D008B7FA1F46E9912C068
S11336A08AB190919A00892B887161F48091740099
S11336B082FD08C0379B03C081E090E005C085E02F
S11336C090E002C080E090E025B78E1708F4E82F60
S11336D0FF27E054FF4FE491237E2062E22BE5BFF5
S11336E078948895F89485B78F7D85BF80916C0216
S11336F08F3F09F4B0CF282F3327F901E55BFE4F44
S1133700808180936C028F3F11F480937B028FEF52
S113371080832F3F09F49FCF4FBF822F0E946C12EA
S113372095CFACE2B0E0E7E9FBE10C94641D222EF6
S1133730332E442E552E662E772E882E992EFE017A
S11337403196A8E01192AA95E9F729823A824B8230
S11337505C826D827E828F829886FE013996B8E003
S11337601192BA95E9F7A986BA86CB86DC86ED86EE
S1133770FE860F87188B89819A81AB81BC8189A7CA
S11337809AA7ABA7BCA77C018D018FEF9FEFA0E0A8
S1133790B0E0E822F9220A231B2389A59AA5ABA548
S11337A0BCA51D014424552489859A85AB85BC8517
S11337B08DA39EA3AFA3B8A75C016D018FEF9FEF0C
S11337C0A0E0B0E0A822B922CA22DB228DA19EA1EA
S11337D0AFA1B8A53D0188249924C801B701A60169
S11337E095010E94451D69A37AA38BA39CA3C801DC
S11337F0B701A40193010E94451D7B018C01C20104
S1133800B101A60195010E94451D5B016C01C20135
S1133810B101A40193010E94451D3B014C01EA0C36
S1133820FB1C0C1D1D1D89A19AA1ABA1BCA19D016E
S1133830442755272E0D3F1D401F511F2A153B05B8
S11338404C055D0540F480E090E0A1E0B0E0680E36
S1133850791E8A1E9B1ECA01AA27BB27860D971DA7
S1133860A81DB91D8D8F9E8FAF8FB8A3A9013327D3
S1133870222789A19AA1ABA1BCA1A070B070280F86
S1133880391F4A1F5B1F298F3A8F4B8F5C8FA98C7E
S1133890BA8CCB8CDC8CED8CFE8C0F8D18A1FE01C8
S11338A0719698E011929A95E9F7ED8AFE8A0F8B4A
S11338B0188F2D813E814F8158856DA17EA18FA1E6
S11338C098A50E94451D3B014C012D853E854F85E1
S11338D0588969A57AA58BA59CA50E94451D2D89AB
S11338E03E894F89588D260F371F481F591F260DB3
S11338F0371D481D591D2D8B3E8B4F8B588F6D885E
S11339007E888F88988C2A2D3B2D4C2D5D2D662D1D
S1133910772D882D992DE2E1AC960C94801DA0E1C1
S1133920B0E0E5E9FCE10C94641D222E332E442E14
S1133930552E662E772E882E992E002309F466C004
S113394088E0FE01319611928A95E9F729833A833A
S11339504B835C836D837E838F829887E0E2E01BD8
S11339601E16CCF52D813E814F815885602F772717
S113397067FD7095DA01C901062E04C0B695A795B6
S1133980979587950A94D2F78D879E87AF87B88BD2
S113399004C0220F331F441F551FEA95D2F78981B3
S11339A09A81AB81BC8104C0B695A79597958795FC
S11339B06A95D2F7282B392B4A2B5B2B29873A8718
S11339C04B875C8729843A844B845C846D847E8431
S11339D08F8498881BC01D861E861F86188A2E2FEA
S11339E0332727FD3095309521953F4F8D819E815A
S11339F0AF81B88504C0B695A795979587952A9504
S1133A00D2F789879A87AB87BC87DCCF222D332DE9
S1133A10442D552D662D772D882D992DE2E1609644
S1133A200C94801D991B79E004C0991F961708F027
S1133A30961B881F7A95C9F780950895AA1BBB1B0E
S1133A4051E107C0AA1FBB1FA617B70710F0A61B9A
S1133A50B70B881F991F5A95A9F780959095BC01BB
S1133A60CD01089597FB092E07260AD077FD04D0CF
S1133A70E5DF06D000201AF4709561957F4F089514
S1133A80F6F7909581959F4F0895629FD001739F9B
S1133A90F001829FE00DF11D649FE00DF11D929FE6
S1133AA0F00D839FF00D749FF00D659FF00D992725
S1133AB0729FB00DE11DF91F639FB00DE11DF91F49
S1133AC0BD01CF01112408952F923F924F925F922E
S1133AD06F927F928F929F92AF92BF92CF92DF921A
S1133AE0EF92FF920F931F93CF93DF93CDB7DEB77F
S1133AF0CA1BDB0B0FB6F894DEBF0FBECDBF099413
S1133B002A88398848885F846E847D848C849B8469
S1133B10AA84B984C884DF80EE80FD800C811B8177
S1133B20AA81B981CE0FD11D0FB6F894DEBF0FBEA6
S1133B30CDBFED010895FB01DC0104C08D9101901E
S1133B40801921F441505040C8F7881B990B0895FF
S1133B50DC0101C06D9341505040E0F70895FFCF60
S1133B60010002010101FFFFFFFF010022FFFFFF2F
S9030000FC
